:040000000CEF01F010
:10000800F2A407D0F29415C0D6FF1AC0D7FF8C7C93
:040018008C7E1100C9
:10001C00010E1814016E19C002F0000E0216000E2B
:10002C00021802E1000E011803E1006A016A04D013
:0A003C00010E006E000E016E1200AE
:10004600D59E8C9C8C9E270E0B6E0D0E0C6E260E6E
:100056000D6E0D2EFED70C2EFCD70B2EFAD70000F8
:100066008C808C92D58E170E0B6ED50E0C6E160EDE
:100076000D6E0D2EFED70C2EFCD70B2EFAD70000D8
:100086008C908C926B0E0B6E890E0C6E710E0D6E33
:100096000D2EFED70C2EFCD70B2EFAD783A411D02B
:1000A6008C908C92BF0E0B6E3D0E0C6ECB0E0D6EB1
:1000B6000D2EFED70C2EFCD70B2EFAD70000000013
:1000C6001ED08C908C827F0E0B6ED40E0C6E310E71
:1000D6000D6E0D2EFED70C2EFCD70B2EFAD7000078
:1000E60000008C908C926B0E0B6E890E0C6E710E4E
:1000F6000D6E0D2EFED70C2EFCD70B2EFAD78C903C
:040106008C821200D5
:10010A00D59E8C9C8C9E270E0B6E0D0E0C6E260EA9
:10011A000D6E0D2EFED70C2EFCD70B2EFAD7000033
:10012A008C808C92D58E170E0B6ED50E0C6E160E19
:10013A000D6E0D2EFED70C2EFCD70B2EFAD7000013
:10014A008C808C826E0E0B6E120E0C6EC90E0D6EAA
:10015A000D2EFED70C2EFCD70B2EFAD783A413D064
:10016A008C808C82BF0E0B6E3D0E0C6ECB0E0D6E0C
:10017A000D2EFED70C2EFCD70B2EFAD7000000004E
:10018A00164A172A1ED08C908C827F0E0B6ED40EC4
:10019A000C6E310E0D6E0D2EFED70C2EFCD70B2ECB
:1001AA00FAD7000000008C808C826E0E0B6E120E45
:1001BA000C6EC90E0D6E0D2EFED70C2EFCD70B2E13
:0801CA00FAD78C908C82120020
:1001D2000900F5CFE6FF0006FBE10106F9E1120096
:1001E200184A192A1ADF00C01BF001C01CF005D002
:1001F20029DF10D089DF0ED00DD0000E1C1802E1CD
:10020200000E1B18F5E0000E1C1802E1010E1B186F
:06021200F1E0F2D712003A
:10021800770E156E166A176A186A196A480E1A6EEA
:10022800A00EF26ED58ED59CD59AD586480ED66E80
:10023800770ED76EFF0E926E010EC26E0E0EC16E55
:10024800180EC06EC00E936EC00E816E3C0E956E79
:100258003C0E836E0F0EC16EB40E156EE10E1A6E53
:100268008C908C8283A41AD0184A192AD3DE00C035
:100278001DF001C01EF005D0E2DE10D042DF0ED026
:100288000DD0000E1E1802E1000E1D18F5E0000E3C
:100298001E1802E1010E1D18F1E0F2D783B601D055
:0602A8009CDFE0D7FFD748
:020000040030CA
:0D000100021F1EFF8381FF0FC00FE00F40A4
:00000001FF
