:04000000C5EF00F058
:10000800F2A407D0F29415C0D6FF18C0D7FF8C7C95
:040018008C7E1100C9
:10001C00D59E8C9C8C9E270E0B6E0D0E0C6E260E98
:10002C000D6E0D2EFED70C2EFCD70B2EFAD7000022
:10003C008C808C92D58E1F0E0B6E710E0C6E1E0E5C
:10004C000D6E0D2EFED70C2EFCD70B2EFAD7000002
:10005C008C808C82700E0B6E9C0E0C6E210E0D6EB5
:10006C000D2EFED70C2EFCD70B2EFAD78C908C8233
:10007C00660E0B6E760E0C6EC10E0D6E0D2EFED72F
:10008C000C2EFCD70B2EFAD78C808C82700E0B6E3C
:10009C009C0E0C6E210E0D6E0D2EFED70C2EFCD769
:0A00AC000B2EFAD78C908C82120004
:1000B600D59E8C9C8C9E270E0B6E0D0E0C6E260EFE
:1000C6000D6E0D2EFED70C2EFCD70B2EFAD7000088
:1000D6008C808C92D58E1F0E0B6E710E0C6E1E0EC2
:1000E6000D6E0D2EFED70C2EFCD70B2EFAD7000068
:1000F6008C908C92700E0B6E9C0E0C6E210E0D6EFB
:100106000D2EFED70C2EFCD70B2EFAD78C908C8298
:10011600660E0B6E760E0C6EC10E0D6E0D2EFED794
:100126000C2EFCD70B2EFAD78C908C92700E0B6E81
:100136009C0E0C6E210E0D6E0D2EFED70C2EFCD7CE
:0A0146000B2EFAD78C908C82120069
:10015000010E1614016E17C002F0000E0216000EFA
:10016000021802E1000E011803E1006A016A04D0DE
:0A017000010E006E000E016E120079
:10017A000900F5CFE6FF0006FBE10106F9E11200EE
:10018A00770E156E166A176A480E186EA00EF26E72
:10019A00D58ED59CD59AD586480ED66E770ED76E53
:1001AA00FF0E926E010EC26E0E0EC16E180EC06E5A
:1001BA00C00E936EC00E816E3C0E956E3C0E836E21
:1001CA000F0EC16EB40E156EE10E186E8C908C82F5
:1001DA0083A418D0164A172AB6DF00C019F001C046
:1001EA001AF004D016DF0ED061DF0CD0000E1A18F8
:1001FA0002E1000E1918F6E0000E1A1802E1010ECB
:08020A001918F2E0E5D7FFD757
:020000040030CA
:0D000100021F1EFF8381FF0FC00FE00F40A4
:00000001FF
