:04000000EDEF00F030
:10000800F2A407D0F29419C0D6FF1AC0D7FF8C7C8F
:040018008C7E1100C9
:10001C00D59E8C9C8C9E270E0B6E0D0E0C6E260E98
:10002C000D6E0D2EFED70C2EFCD70B2EFAD7000022
:10003C008C808C92D58E1F0E0B6E710E0C6E1E0E5C
:10004C000D6E0D2EFED70C2EFCD70B2EFAD7000002
:10005C008C808C82700E0B6E9C0E0C6E210E0D6EB5
:10006C000D2EFED70C2EFCD70B2EFAD78C908C8233
:10007C00660E0B6E760E0C6EC10E0D6E0D2EFED72F
:10008C000C2EFCD70B2EFAD78C808C82700E0B6E3C
:10009C009C0E0C6E210E0D6E0D2EFED70C2EFCD769
:1000AC000B2EFAD783A412D08C808C82FE0E0B6E92
:1000BC00A70E0C6E650E0D6E0D2EFED70C2EFCD7FA
:1000CC000B2EFAD700000000174A182A8C908C824D
:0200DC00120010
:1000DE00D59E8C9C8C9E270E0B6E0D0E0C6E260ED6
:1000EE000D6E0D2EFED70C2EFCD70B2EFAD7000060
:1000FE008C808C92D58E1F0E0B6E710E0C6E1E0E9A
:10010E000D6E0D2EFED70C2EFCD70B2EFAD700003F
:10011E008C908C92700E0B6E9C0E0C6E210E0D6ED2
:10012E000D2EFED70C2EFCD70B2EFAD78C908C8270
:10013E00660E0B6E760E0C6EC10E0D6E0D2EFED76C
:10014E000C2EFCD70B2EFAD78C908C92700E0B6E59
:10015E009C0E0C6E210E0D6E0D2EFED70C2EFCD7A6
:10016E000B2EFAD783A412D08C908C92FE0E0B6EAF
:10017E00A70E0C6E650E0D6E0D2EFED70C2EFCD737
:10018E000B2EFAD700000000174A182A8C908C828A
:02019E0012004D
:1001A000010E1514016E16C002F0000E0216000EAC
:1001B000021802E1000E011803E1006A016A04D08E
:0A01C000010E006E000E016E120029
:1001CA000900F5CFE6FF0006FBE10106F9E112009E
:1001DA00156A166A176A186A770E196E480E1A6E29
:1001EA00A00EF26ED58ED59CD59AD586480ED66EBF
:1001FA00770ED76EFF0E926E010EC26E0E0EC16E94
:10020A00180EC06EC00E936EC00E816E3C0E956EB7
:10021A003C0E836E0F0EC16EB40E196EE10E1A6E8D
:10022A008C908C8283A41AD0154A162AB4DF00C097
:10023A001BF001C01CF005D0ECDE10D04BDF0ED055
:10024A000DD0000E1C1802E1000E1B18F5E0000E7E
:10025A001C1802E1010E1B18F1E0F2D7E3D7FFD711
:020000040030CA
:0D000100021F1EFF8381FF0FC00FE00F40A4
:00000001FF
