:04000000F8EF00F025
:10000800F2A407D0F29423C0D6FF24C0D7FF8C7C7B
:040018008C7E1100C9
:0C001C00000000000000000000001200C6
:10002800240E0C6EB50E0D6E0D2EFED70C2EFCD7C1
:06003800000000001200B0
:0A003E00530E0D6E0D2EFED71200BA
:100048002CBE02D0819601D081862CBC02D081942E
:1000580001D081842CBA02D0819201D081822CB83F
:1000680002D0819001D0818025B002D0818801D052
:100078008198818ACFDF819A2CB602D0819601D0EF
:1000880081862CB402D0819401D081842CB202D014
:10009800819201D081822CB002D0819001D08180E0
:1000A80025B002D0818801D08198818AB3DF819AF6
:0C00B80025A002D0B5DF01D0BEDF120091
:0C00C40025902BC02CF0BEDF2580120020
:1000D0000900F5CFE6FF0006FBE10106F9E1120099
:1000E00093929390939493969398939A819A8198EC
:1000F000819681948192819097DF96DF95DF81824E
:100100008180818A8BDF819A8FDF818A87DF819A64
:100110008BDF818A83DF819A87DF8190818A7EDF0E
:10012000819A82DF818A7ADF819A81928186818AAF
:1001300075DF819A79DF81968180818A6FDF819A6C
:100140008190818A6BDF819A6FDF818A67DF819A74
:100150008180818A63DF819A67DF8190818A5EDF97
:10016000819A8186818481828180818A57DF819A08
:060170005BDF2580120098
:100176000FD0800E266E19D0C00E266E16D0940EA5
:10018600266E13D0D40E266E10D0800E266E0DD09D
:100196002650010AEEE02650020AEEE02650030A37
:1001A600EEE02650040AEEE0F0D72704006E265053
:1001B600002600C026F000C02CF043DF25902A6AF6
:1001C6002A502824E96E000E2920EA6EEE520BE032
:1001D6002A502824E96E000E2920EA6EEECF2BF075
:0A01E6006EDF2A2AEDD725801200F3
:1001F00094EC01F0A00EF26ED58ED59CD59AD586E2
:10020000480ED66E770ED76EC00E936EC00E816EFE
:100210003C0E956E3C0E836E0F0EC16EB40E236EB7
:10022000E10E246E8C808C925BDF010E2C6E0CDF55
:100230000C0E2C6E09DF010E266E010E276E150EB8
:10024000286E000E296E97DF83A431D0D59E8C9C3A
:100250008C9E1F0E0B6E710E0C6E1E0E0D6E0D2EF3
:10026000FED70C2EFCD70B2EFAD700008C808C9278
:10027000D58E270E0B6E0D0E0C6E260E0D6E0D2EEE
:10028000FED70C2EFCD70B2EFAD700008C908C8258
:10029000610E0B6E640E0C6E100E0D6E0D2EFED7E1
:1002A0000C2EFCD70B2EFAD700008C808C9283A6E4
:1002B00031D0D59E8C9C8C9E1A0E0B6E5E0E0C6EF1
:1002C0006E0E0D6E0D2EFED70C2EFCD70B2EFAD710
:1002D00000008C808C92D58E270E0B6E0D0E0C6E4E
:1002E000260E0D6E0D2EFED70C2EFCD70B2EFAD738
:1002F00000008C908C82610E0B6E640E0C6E100EE2
:100300000D6E0D2EFED70C2EFCD70B2EFAD700004B
:080310008C908C8299D7FFD775
:1003280010EE15F0100E006E010E016E180EF66E2E
:0E033800030EF76E000EF86E68EC00F0120077
:0E031800544553544520446973706C6179005C
:01032600775F
:01032700488D
:020000040030CA
:0D000100021F1EFF8381FF0FC00FE00F40A4
:00000001FF
