:0400000018EF03F002
:1000080000C015F0F2A412D0F294164A172A19C0AB
:10001800D6FF1AC0D7FF8C7C8C7E1750010A02E1EC
:100028004D0E161803E1166A176A291E15C000F04E
:020038001100B5
:0A003A00530E0D6E0D2EFED71200BE
:100044000B840BAE2DEF00F0010E036E026A016A01
:0A005400006A0A360232FF0E1200A5
:08005E000AAE029E000E120022
:0E006600026A016A006A086A036A000E12004C
:0C0074000000000000000000000012006E
:10008000240E0C6EB50E0D6E0D2EFED70C2EFCD769
:0600900000000000120058
:1000960035BE02D0819601D0818635BC02D08194CE
:1000A60001D0818435BA02D0819201D0818235B8DF
:1000B60002D0819001D081802AB002D0818801D0FF
:1000C6008198818AD4DF819A35B602D0819601D093
:1000D600818635B402D0819401D0818435B202D0B4
:1000E600819201D0818235B002D0819001D0818089
:1000F6002AB002D0818801D08198818AB8DF819A9E
:0C0106002AA002D0BADF01D095DF120061
:0C011200240E0D6E0D2EFED70000120012
:10011E000C6A0E6A0250D8A4A8EF00F001C002F0DB
:10012E0000C001F0006A0E860250D8A4A8EF00F0BD
:10013E0001C002F0016A0E960E880250D8B4BAEFD2
:10014E0000F00E50035ED8A4D8A0BFEF00F0D890F8
:10015E0002BEC4EF00F0003601360236032EAFEFBA
:10016E0000F0BFEF00F0010E0C6E76DFC7EF00F06F
:10017E00020E0C6E60DFC7EF00F0040E0C6E68DF2F
:02018E0012005D
:100190000B820BAED2EF00F00368026801680068C2
:0801A0000A360232FF0E1200C4
:1001A8000B800BAEE0EF00F0026A0AAEFF0E026EA3
:0C01B800016E006E0A360232FF0E1200CB
:1001C4000050086E0150006E016A026A036A0B6AED
:1001D4000C6A960E036E0A6A00C001F008C000F0B3
:0801E400086A026A9ADF1200AA
:0C01EC002A9032C035F051DF2A8012004A
:1001F800086A080E0C6E003408360450085ED8B041
:0E02080002D00826D89000360C2EF5D7120032
:100216000FD0800E326E19D0C00E326E16D0940EEC
:10022600326E13D0D40E326E10D0800E326E0DD0D8
:100236003250010AEEE03250020AEEE03250030A72
:10024600EEE03250040AEEE0F0D73304006E32508E
:10025600002600C032F02A8000C035F019DF2A904F
:0A02660034C035F015DF2A801200C5
:10027000086A096A000E07620364BDEF01F00250CC
:1002800006180A6E075003267E0ED8A04EEF01F026
:10029000035ED8B0C1EF01F052EF01F0035ED8A0C9
:1002A000C5EF01F0028E068E02C00EF001C00BF009
:1002B00000C00DF000500402F4CF0CF00150050214
:1002C000F4CF00F0F3CF08F00402F3500C26F45002
:1002D0000822000E00220D500502F3500C26F450A7
:1002E0000822000E002202500402F3500826F450A7
:1002F000002202500502016A000E0122F35000267E
:10030000F45001220D500602F3500826F45000224A
:10031000026A000E012202220B500602F350002650
:10032000F4500122000E02220E500602F350012664
:10033000F450022202BEA5EF01F008360036013665
:1003400002360306D8B4C5EF01F0B8EF01F0D8804B
:10035000800E08640030000E002201220222D8A084
:10036000B8EF01F0023201320032034AC1EF01F06E
:100370000AAE029E000EC7EF01F0010E74DEC7EF59
:1003800001F0020E05DFC7EF01F0040E5BDE120084
:10039000C26A181C006E0050C116070EC012C08E33
:1003A00032C000F000360090003600900050C212BB
:1003B000C280AFDEC282C2A201D0FDD7C4CF01F09D
:0E03C000006AC3500012000E0112C29012001B
:1003CE000B6A0350D8B42DEF02F002500A6E028E63
:1003DE008E0E035E03AE31EF02F0036C080E035C6B
:1003EE00D8A00CEF02F0036E013602C001F0026AD3
:1003FE00080E035CD8A00CEF02F0036E0136016A02
:10040E000350D8A4D89016EF02F00350D8B416EFCC
:10041E0002F0D89002320132032E10EF02F00BBC24
:10042E0001A023EF02F0D8A023EF02F0012AD8B4E6
:10043E00022A02BE40EF02F00AAE45EF02F0021EA3
:10044E00011E012AD8B4022A45EF02F0026A016A9F
:10045E0045EF02F00B800BAE49EF02F0026A0AAED6
:10046E0049EF02F0FF0E026E016E0A36023249EFBC
:10047E0002F0010E0C6E91DE4BEF02F0000E0C6ED0
:10048E004BEF02F0FF0E0C6E0150006E0250016E2B
:02049E0012004A
:1004A00093929390939493969398939A819A819828
:1004B0008196819481928190E3DDE2DDE1DD8182AC
:1004C0008180818AD7DD819ADBDD818AD3DD819AC3
:1004D000D7DD818ACFDD819AD3DD8190818ACADD23
:1004E000819ACEDD818AC6DD819A81928186818A58
:1004F000C1DD819AC5DD81968180818ABBDD819ACB
:100500008190818AB7DD819ABBDD818AB3DD819AD2
:100510008180818AAFDD819AB3DD8190818AAADDF5
:10052000819A8186818481828180818AA3DD819AFA
:06053000A7DD2A80120085
:100536000900F5CFE6FF0006FBE10106F9E112002E
:10054600326A23DF3CDE270E046E310E056E480E3E
:10055600066E7A0E076E89DE330E046E330E056E56
:10056600330E066E800E076E80DE2EDF00C02BF087
:1005760001C02CF0020E326E010E336E640E046E54
:1005860038DE300E0024346E43DE0A0E2B14326E33
:10059600300E322628DE2E0E326E25DE0A0E2B1483
:1005A600326E300E32261FDE560E326E1CDE120002
:1005B6000FD0800E2D6E19D0C00E2D6E16D0940E53
:1005C6002D6E13D0D40E2D6E10D0800E2D6E0DD044
:1005D6002D50010AEEE02D50020AEEE02D50030ADE
:1005E600EEE02D50040AEEE0F0D72E04006E2D50FA
:1005F600002600C02DF000C035F04ADD2A90316A91
:1006060031502F24E96E000E3020EA6EEE520BE0D8
:1006160031502F24E96E000E3020EA6EEECF32F014
:0A062600E2DD312AEDD72A80120030
:10063000C1EC03F0A00EF26ED58ED59CD59AD5866E
:10064000480ED66E770ED76EFF0E926E010EC26EFA
:100650000E0EC16E180EC06EC00E936EC00E816E6F
:100660003C0E956E3C0E836E0F0EC16EB40E196E6D
:10067000E10E1A6E8C808C9213DF010E356E0BDD4D
:100680000C0E356E08DD010E2D6E010E2E6E1B0E4A
:100690002F6E000E306E8FDF295201E054DF83A4ED
:1006A00031D0D59E8C9C8C9E1F0E0B6E710E0C6EE5
:1006B0001E0E0D6E0D2EFED70C2EFCD70B2EFAD76C
:1006C00000008C808C92D58E270E0B6E0D0E0C6E5A
:1006D000260E0D6E0D2EFED70C2EFCD70B2EFAD744
:1006E00000008C908C82610E0B6E640E0C6E100EEE
:1006F0000D6E0D2EFED70C2EFCD70B2EFAD7000058
:100700008C808C9283A631D0D59E8C9C8C9E1A0EA8
:100710000B6E5E0E0C6E6E0E0D6E0D2EFED70C2E39
:10072000FCD70B2EFAD700008C808C92D58E270E2A
:100730000B6E0D0E0C6E260E0D6E0D2EFED70C2EB2
:10074000FCD70B2EFAD700008C908C82610E0B6EBA
:10075000640E0C6E100E0D6E0D2EFED70C2EFCD7F7
:0E0760000B2EFAD700008C908C8296D7FFD714
:1007820010EE16F0140E006E010E016E6E0EF66E75
:0E079200070EF76E000EF86E9BEC02F01200E0
:02076E00000089
:010770003058
:010771007710
:01077200483E
:0E077300544553544520446973706C617900FD
:010781000077
:020000040030CA
:0D000100021F1EFF8381FF0FC00FE00F40A4
:00000001FF
