:0400000016EF00F007
:10000800F2A407D0F29416C0D6FF15C0D7FF8C7C97
:040018008C7E1100C9
:10001C000900F5CFE6FF0006FBE10106F9E112004D
:10002C00480E156E770E166EA00EF26ED58ED59C00
:10003C00D59AD586480ED66E770ED76EFF0E926E79
:10004C00010EC26E0E0EC16E180EC06EC00E936EF7
:10005C00C00E816E3C0E956E3C0E836E0F0EC16E03
:10006C00930E166E9A0E156E8C908C82FFD7FFD75E
:020000040030CA
:0D000100021F1EFF8381FF0FC00FE00F40A4
:00000001FF
