:0400000016EF00F007
:10000800F2A407D0F29415C0D6FF16C0D7FF8C7C97
:040018008C7E1100C9
:10001C000900F5CFE6FF0006FBE10106F9E112004D
:10002C00770E156E480E166EA00EF26ED58ED59C00
:10003C00D59AD586480ED66E770ED76EFF0E926E79
:10004C00010EC26E0E0EC16E180EC06EC00E936EF7
:10005C00C00E816E3C0E956E3C0E836E0F0EC16E03
:10006C00770E156E480E166E8C908C8283A431D050
:10007C00D59E8C9C8C9E330E0B6EBB0E0C6EDF0EC5
:10008C000D6E0D2EFED70C2EFCD70B2EFAD70000C2
:10009C0000008C808C92D58E1F0E0B6E710E0C6E28
:1000AC001E0E0D6E0D2EFED70C2EFCD70B2EFAD776
:1000BC0000008C808C82660E0B6E760E0C6EC10E60
:1000CC000D6E0D2EFED70C2EFCD70B2EFAD78C9066
:1000DC008C8283A631D0D59E8C9C8C9E330E0B6E5D
:1000EC00BB0E0C6EDF0E0D6E0D2EFED70C2EFCD73C
:1000FC000B2EFAD7000000008C808C92D58E1F0E30
:10010C000B6E710E0C6E1E0E0D6E0D2EFED70C2E80
:10011C00FCD70B2EFAD700008C908C92660E0B6ECF
:10012C00760E0C6EC10E0D6E0D2EFED70C2EFCD75E
:0C013C000B2EFAD78C908C8299D7FFD73D
:020000040030CA
:0D000100021F1EFF8381FF0FC00FE00F40A4
:00000001FF
