:0400000016EF00F007
:10000800F2A407D0F29416C0D6FF15C0D7FF8C7C97
:040018008C7E1100C9
:10001C000900F5CFE6FF0006FBE10106F9E112004D
:10002C00480E156E770E166EA00EF26ED58ED59C00
:10003C00D59AD586480ED66E770ED76E3C0E956E39
:10004C003C0E836E0F0EC16EA70E166E380E156E1B
:10005C008C908C9283A431D0D59E8C9C8C9E1A0E45
:10006C000B6E5E0E0C6E6E0E0D6E0D2EFED70C2EE4
:10007C00FCD70B2EFAD700008C808C82D58E270EE5
:10008C000B6E0D0E0C6E260E0D6E0D2EFED70C2E5D
:10009C00FCD70B2EFAD700008C808C92610E0B6E65
:1000AC00640E0C6E100E0D6E0D2EFED70C2EFCD7A2
:1000BC000B2EFAD700008C908C9283A631D0D59E53
:1000CC008C9C8C9E1A0E0B6E5E0E0C6E6E0E0D6E54
:1000DC000D2EFED70C2EFCD70B2EFAD700008C80E1
:1000EC008C82D58E270E0B6E0D0E0C6E260E0D6EA1
:1000FC000D2EFED70C2EFCD70B2EFAD700008C90B1
:10010C008C82610E0B6E640E0C6E100E0D6E0D2E2D
:10011C00FED70C2EFCD70B2EFAD700008C908C92AD
:04012C0099D7FFD789
:020000040030CA
:0D000100021F1EFF8381FF0FC00FE00F40A4
:00000001FF
