:0400000016EF00F007
:10000800F2A407D0F29416C0D6FF15C0D7FF8C7C97
:040018008C7E1100C9
:10001C000900F5CFE6FF0006FBE10106F9E112004D
:10002C00480E156E770E166EA00EF26ED58ED59C00
:10003C00D59AD586D66AD76A3C0E956E3F0E836EDE
:10004C000F0EC16EA70E166E380E156E837083726E
:10005C00660E0B6E760E0C6EC10E0D6E0D2EFED74F
:0C006C000C2EFCD70B2EFAD7F1D7FFD7D3
:020000040030CA
:0D000100021F1EFF8381FF0FC00FE00F40A4
:00000001FF
