:020000040000FA
:020000001228C4
:08000800A000030E8312A10009
:100010008B180B280D288B102120210E8300A00E99
:10002000200E090083160F308500C0308100831236
:100030000730990090308B00051285120430A20021
:100040002028A20C22080139031928281030A20008
:10005000851D3B2822080239031D4C28220804393B
:10006000031D4F2822080839031D52282208103981
:10007000031D5528080022080239031D55282208AF
:100080000439031D522822080839031D4F2822086D
:100090001039031D4C2808000516851608000516A2
:1000A0008512080005128512080005128516080041
:02400E00843FED
:00000001FF
