:02000000BC2B17
:10000800DF00030E8301BD000A08BC008A01500806
:10001800A1008B1C242883128B1010181728101489
:10002800831601132428831210100F08A500A401B9
:100038000E08A4070318A50A8F018E01831601175D
:100048000B1D35280B111530831281008514000013
:100058000000000000000000000000000000000098
:1000680085102108D0003C088A003D0E8300DF0E71
:040078005F0E09000E
:10007C00DB09DA09D909D809D80A0319D90A0319ED
:08008C00DA0A0319DB0A08007F
:100094005408D8025508031C550FD9025608031CEE
:1000A400560FDA025708031C570FDB02D30D073033
:1000B400DC00530DD80DD90DDA0DDB0D5408531C9B
:1000C4007128D8025508031C550FD9025608031C81
:1000D400560FDA025708031C570FDB027E28D80795
:1000E40055080318550FD90756080318560FDA0791
:1000F40057080318570FDB07D30DDC0B5B28520D91
:10010400D80DD90DDA0DDB0D5408531C9728D802ED
:100114005508031C550FD9025608031C560FDA0262
:100124005708031C570FDB02A428D80755080318E7
:10013400550FD90756080318560FDA07570803183E
:10014400570FDB07D20D0730DC00520DD80DD90D47
:10015400DA0DDB0D5408521CBD28D8025508031CC7
:10016400550FD9025608031C560FDA025708031C10
:10017400570FDB02CA28D80755080318550FD907AB
:1001840056080318560FDA0757080318570FDB07EA
:10019400D20DDC0BA728510DD80DD90DDA0DDB0DCE
:1001A4005408521CE328D8025508031C550FD902E1
:1001B4005608031C560FDA025708031C570FDB02BC
:1001C400F028D80755080318550FD90756080318FF
:1001D400560FDA0757080318570FDB07D10D0730FE
:1001E400DC00510DD80DD90DDA0DDB0D5408511C6E
:1001F4000929D8025508031C550FD9025608031CB7
:10020400560FDA025708031C570FDB021629D807CA
:1002140055080318550FD90756080318560FDA075F
:1002240057080318570FDB07D10DDC0BF328500DCB
:10023400D80DD90DDA0DDB0D5408511C2F29D80225
:100244005508031C550FD9025608031C560FDA0231
:100254005708031C570FDB023C29D807550803181D
:10026400550FD90756080318560FDA07570803180D
:10027400570FDB07D00D0730DC00500DD80DD90D1A
:10028400DA0DDB0D5408501C5529D8025508031CFF
:10029400550FD9025608031C560FDA025708031CDF
:1002A400570FDB026229D80755080318550FD907E1
:1002B40056080318560FDA0757080318570FDB07B9
:1002C400D00DDC0B3F29501875295408D807550860
:1002D4000318550FD90756080318560FDA0757089D
:0802E4000318570FDB070800A7
:1002EC00831203135008D100D0010830DC005108F0
:1002FC00D40C03188529DC0B7E29D10100340310A2
:10030C008A29D40C0318D107D10CD00CDC0B87290B
:02031C000800D7
:10031E0083125408003A031DA9295508003A031DFB
:10032E00A9295608003A031DA9295708003A031DAA
:10033E00A929FF30D000FF30D100FF30D2007F302E
:10034E00D300422A83120313DC01D71BDC0ADD0122
:10035E00DB01DA01D901D8015308520451045004CB
:10036E0003193D2A53085706A000A01BDD09D71F0D
:10037E00CB29D409D509D609D709D40A0319D50A28
:10038E000319D60A0319D70AD31FD829D009D109C0
:10039E00D209D309D00A0319D10A0319D20A0319B3
:1003AE00D30A53085704A000A01BF9294A20DC1BCE
:1003BE00162ADD1F3D2AD009D109D209D309D00A48
:1003CE000319D10A0319D20A0319D30AD809D90974
:1003DE00DA09DB09D80A0319D90A0319DA0A03194B
:1003EE00DB0A3D2AD71F102AD31B0A2A5308DB002B
:1003FE005208DA005108D9005008D800D301D201B2
:10040E00D101D001E029D301D201D101D001D00A0E
:10041E000034D309D209D109D009DC17DD29D80A55
:10042E000319D90A0319DA0A0319DB0A5408580208
:10043E00031DE02955085902031DE02956085A02EA
:10044E00031DE02957085B02031DE029DB01DA01D9
:10045E00D901D801D00A0319D10A0319D20A0319F6
:10046E00D30AD31FE029A0012016FF34A0015C1C83
:08047E00412A3E20003E080067
:0C04860083123B088A003A08820008003C
:1004920083123E08D0003A30D4007621510823025C
:1004A200031D552A500822020318682A3F08D0006B
:1004B2003A30D400762151082302031D622A5008E3
:1004C2002202031C682A8516051205109A2A3F0883
:1004D200D0003A30D400762151082302031D732A3A
:1004E200500822020318862A4008D0003A30D4006D
:1004F200762151082302031D802A50082202031C80
:10050200862A8516051605109A2A4008D0003A3028
:10051200D400762151082302031D912A5008220299
:100522000318972A8516051605149A2A85120512AC
:0405320005100800A8
:100536008312C201C301C401C5010A30C0000030E4
:10054600C1008030D000803041065002031DAD2A24
:100556004008003C0318DC2A4008D0004108D100BE
:10056600D00DD10D50105008263ED5000130400266
:10057600D3000030031C013E4102D4005308D000D2
:100586005408D100D00DD10D50105008263E8400DD
:100596000008D000840A0008D100550884005008DD
:1005A60080005108840A80000130C002031CC10388
:1005B600A42A3E08A6003F08A700C001C10180305A
:1005C6004106D00080305002031DEB2A0A3040025B
:1005D6000318182B4008D0004108D100D00DD10DCA
:1005E60050105008263E84000008D000840A0008F7
:1005F600D100D201D3014208D00743080318430FA4
:10060600D10744080318440FD20745080318450FBD
:10061600D3075008C2005108C3005208C40053084B
:10062600C500C00A0319C10AE22A0A30D400D5015E
:10063600D601D7014208D0004308D1004408D200B1
:080646004508D3008F210800D4
:10064E00093083122302031D2E2B103022020318B1
:10065E003C2B07302302031D362BEE302202031CE7
:10066E003C2B851205120514AF2B07302302031DF8
:10067E00422BEE3022020318502B06302302031DAC
:10068E004A2BCC302202031C502B85120516051066
:10069E00AF2B06302302031D562BCC30220203183B
:1006AE00642B05302302031D5E2BAA302202031C8D
:1006BE00642B851205160514AF2B05302302031D7E
:1006CE006A2BAA3022020318782B04302302031D52
:1006DE00722B88302202031C782B8516051205100A
:1006EE00AF2B04302302031D7E2B88302202031809
:1006FE008C2B03302302031D862B66302202031C33
:10070E008C2B851605120514AF2B03302302031D07
:10071E00922B663022020318A02B02302302031DF7
:10072E009A2B44302202031CA02B851605160510A9
:10073E00AF2B02302302031DA62B443022020318D6
:10074E00AC2B851605160514AF2B85120512051058
:02075E00080091
:1007600043228A110A128000840ABA0A0319BB0ABA
:08077000D003031DB02B0800AB
:100778008312A201A301A401A50107309900C73083
:1007880083168100B0308B001530831281000C3045
:10079800831685000C308312850090012408BE0062
:1007A8002508BF009B225008A2005108A300851D00
:1007B800E52B1430BE000F30BF000A30C0004922BC
:0807C800E62B2723D22BE72BBF
:02400E00E2319D
:00000001FF
